:020000040800F2
:10000000580400204901000805050008FD04000807
:1000100001050008E1030008270B000800000000AC
:10002000000000000000000000000000E9060008D9
:10003000E50300080000000099050008FD0700081E
:100040006301000863010008630100086301000800
:1000500063010008630100086301000863010008F0
:1000600063010008630100086301000863010008E0
:1000700063010008630100086301000863010008D0
:1000800063010008630100086301000863010008C0
:1000900063010008630100086301000863010008B0
:1000A00063010008630100086301000863010008A0
:1000B0006301000863010008630100086301000890
:1000C0006301000863010008630100086301000880
:1000D000630100086301000861080008630100086B
:1000E0006301000863010008630100086301000860
:1000F0006301000863010008630100086301000850
:10010000630100086301000863010008630100083F
:10011000630100086301000863010008630100082F
:10012000630100086301000863010008630100081F
:10013000DFF810D000F05EF800480047E10E00083C
:10014000AFF3008058040020064880470648004767
:10015000FEE7FEE7FEE7FEE7FEE7FEE7FEE7FEE777
:10016000FEE7FEE70108000831010008D2B201E015
:1001700000F8012B491EFBD270470022F6E710B5AC
:1001800013460A4604461946FFF7F0FF204610BD05
:100190002DE9F05F0546002092469B4688460646BC
:1001A000814640241BE0284641464746224600F04F
:1001B00042F853465A46C01A914110D31146184688
:1001C000224600F029F82D1A67EB01084F46224617
:1001D0000120002100F020F817EB00094E41201EFD
:1001E000A4F10104DFDC484631462A464346BDE817
:1001F000F09F0000064C074D06E0E06840F0010368
:1002000094E8070098471034AC42F6D3FFF794FF08
:100210006810000888100008202A04DB203A00FA41
:1002200002F1002070479140C2F1200320FA03F34D
:10023000194390407047202A04DB203A21FA02F04B
:100240000021704721FA02F3D040C2F12002914010
:1002500008431946704721B1826842F0010282606A
:1002600003E0826822F001028260704710B5044604
:100270001248844208D10121401500F0BBF9002149
:10028000601500F0B7F917E00D48844208D101214C
:10029000001500F0AFF90021201500F0ABF90BE0DC
:1002A0000848844208D10121C80300F0A3F90021C5
:1002B0004FF4004000F09EF910BD00000024014002
:1002C00000280140003C0140014600208A6802F0FD
:1002D00004020AB1012000E000207047014600201E
:1002E0008A6802F008020AB1012000E0002070478D
:1002F00030B502460020002350680F4C20400D7995
:100300000C6844EA05242043506090680B4C204060
:10031000D1E902542C434D7944EA450420439060CE
:10032000D06A20F470000C7C641EE4B2234340EADF
:100330000350D06230BD0000FFFEF0FFFDF7F1FF7B
:10034000816841F0080181607047816841F00401D3
:100350008160704700B587B001214FF4017000F053
:1003600039F94FF4004000F019F90220ADF804000B
:1003700000208DF8070001A9174800F034F817484D
:10038000FFF774FF002002908DF80C008DF80D002F
:100390004FF4602004900020059001208DF8180093
:1003A00002A90E48FFF7A4FF01210C48FFF753FFF5
:1003B0000A48FFF7C5FF00BF0848FFF78FFF002876
:1003C000FAD10648FFF7C1FF00BF0448FFF77CFFE2
:1003D0000028FAD107B000BD000801400024014008
:1003E00000BFFEE770472DE9F041024600250026D8
:1003F000002000230024002791F803C00CF00F0513
:1004000091F803C00CF0100CBCF1000F03D091F870
:1004100002C04CEA050591F800C0BCF1000F31D0D4
:10042000146800202BE04FF0010C0CFA00F3B1F837
:1004300000C00CEA03069E4220D183004FF00F0C4F
:100440000CFA03F7BC4305FA03FC4CEA040491F8E8
:1004500003C0BCF1280F06D14FF0010C0CFA00FCD0
:10046000C2F814C00AE091F803C0BCF1480F05D1EE
:100470004FF0010C0CFA00FCC2F810C0401C082818
:10048000D1D31460B1F800C0BCF1FF0F34DD546863
:1004900000202EE000F1080C4FF0010808FA0CF3E0
:1004A000B1F800C00CEA03069E4221D183004FF050
:1004B0000F0C0CFA03F7BC4305FA03FC4CEA0404E6
:1004C00091F803C0BCF1280F05D100F1080C08FA1F
:1004D0000CF8C2F8148091F803C0BCF1480F07D1A2
:1004E00000F1080C4FF0010808FA0CF8C2F810806F
:1004F000401C0828CED35460BDE8F08100BFFEE761
:1005000000BFFEE7704710B54FF4A06000F03AF866
:1005100010BD000070B5002100230F22C47804B381
:10052000154C246804F4E064C4F5E064210AC1F1C8
:100530000403CA40447804FA03F184781440214348
:1005400009010E4C0678A155047804F01F0501241A
:10055000AC4005786D11AD0005F1E025C5F800410E
:1005600009E0047804F01F050124AC40044D06782E
:10057000761145F8264070BD0CED00E000E400E087
:1005800080E100E002490143024A11607047000027
:100590000000FA050CED00E0704700000146002065
:1005A000034A506820F44040084350607047000000
:1005B0000010024029B1064AD2690243044BDA61B5
:1005C00004E0034AD2698243014BDA6170470000BC
:1005D0000010024029B1064A92690243044B9A6115
:1005E00004E0034A92698243014B9A61704700001C
:1005F0000010024029B1064AD2680243044BDA6077
:1006000004E0034AD2688243014BDA60704700007D
:100610000010024030B500210022002400232D4D9F
:100620006D6805F00C0121B1042905D0082923D1FA
:1006300005E0294D056022E0274D05601FE0254DAE
:100640006D6805F47012234D6D6805F48034022541
:1006500005EB92421CB9214D554305600BE01D4D41
:100660006D6805F400351DB11C4D5543056002E071
:10067000194D5543056002E0174D056000BF00BFEE
:10068000144D6D6805F0F0010909154D6B5C0568A6
:10069000DD4045600F4D6D6805F4E061090A104DBD
:1006A0006B5C4568DD4085600A4D6D6805F46051FE
:1006B000C90A0B4D6B5C4568DD40C560054D6D6832
:1006C00005F44041890B074D6B5CC568B5FBF3F53C
:1006D000056130BD0010024000127A0000093D00A3
:1006E0002C0000203C000020704710B500F002F8FC
:1006F00010BD00000CB50020019000903348006848
:1007000040F480303149086000BF3048006800F490
:10071000003000900198401C0190009818B9019891
:10072000B0F5A06FF1D12948006800F4003010B195
:100730000120009001E0002000900098012843D1A2
:100740002348006840F0100021490860084600680E
:1007500020F0030008600846006840F002000860CE
:100760001A48406819494860084640684860084689
:10077000406840F4806048600846406820F47C107F
:1007800048600846406840F4E81048600846006841
:1007900040F08070086000BF0C48006800F00070F6
:1007A0000028F9D00948406820F003000749486054
:1007B0000846406840F00200486000BF03484068B7
:1007C00000F00C000828F9D10CBD00000010024018
:1007D00000200240042808D14FF0E021096941F0CF
:1007E00004014FF0E022116107E04FF0E0210969B8
:1007F00021F004014FF0E0221161704770470000C2
:1008000010B51348006840F001001149086008461F
:100810004068104908400E494860084600680E4983
:1008200008400B4908600846006820F480200860F2
:100830000846406820F4FE0048604FF41F008860BE
:10084000FFF753FF4FF000600449086010BD00003F
:10085000001002400000FFF8FFFFF6FE08ED00E088
:1008600010B540F22551304800F098F8012859D1D0
:1008700040F225512C4800F069F82B4800F04AF965
:10088000C1B22A4802680068401C284B18602848FA
:10089000815418460068022823DB25480078202868
:1008A00018D1234840785A2814D12148194609689C
:1008B000405C0A2815D118460068401E1C49085C97
:1008C0000D280ED100201946086012211848FFF7A4
:1008D00054FC06E000201549086012211448FFF777
:1008E0004CFC1248006812281CDB002011490860EB
:1008F0000DE00F480F490968425C0E4801680EA0E0
:1009000000F014F90B480068401C0A4908600948C7
:1009100000681228EDDB0020044908601221044819
:10092000FFF72BFC10BD0000004400400400002035
:1009300044000020080000206A203D2025642C642B
:10094000203D202578200D0A0000000010B500226F
:10095000002340F66A14A14200D100BF0A1201240C
:100960009440A3B2DC43048010BD21B1828942F4DB
:100970000052828104E082894DF6FF731A40828121
:10098000704702460020B1F5007F00D100BF1388F8
:100990000B400BB1012000E00020704770B502460B
:1009A000002400230025002040F66A16B14200D141
:1009B00000BFC1F3421501F01F03012606FA03F33D
:1009C000012D02D19689334006E0022D02D1168A0C
:1009D000334001E0968A33400C12012606FA04F4F3
:1009E0001688344013B10CB1012000E0002070BD26
:1009F000F0B50346002400260025002040F66A17C3
:100A0000B94200D100BF1846C1F3421401F01F06DD
:100A1000012707FA06F5012C01D10C3004E0022C65
:100A200001D1103000E014301AB107682F4307607D
:100A300002E00768AF430760F0BD00002DE9F04712
:100A400086B005460E460024A24600BFA1460027F8
:100A5000B08900B100BF2F462C8A4CF6FF700440CD
:100A6000F08804432C82AC894EF6F3100440B08821
:100A700031890843718908430443AC81AC8A4FF63D
:100A8000FF400440B0890443AC8201A8FFF7C2FDD7
:100A90001F48874202D1DDF810A001E0DDF80CA06C
:100AA000A88900F4004040B10AEBCA0000EB0A102C
:100AB00031684900B0FBF1F807E00AEBCA0000EB2F
:100AC0000A1031688900B0FBF1F86420B8FBF0F03F
:100AD00004012009642101FB1089A88900F4004069
:100AE00040B1322000EBC900B0FBF1F000F007008C
:100AF000044308E0322000EB09106421B0FBF1F060
:100B000000F00F0004432C8106B0BDE8F087000020
:100B10000038014001468888C0F308007047C1F3DF
:100B200008028280704700BFFEE700000FB4054B4B
:100B300010B503A9044A029800F018F810BC5DF83B
:100B400014FB0000BD0E00084000002002E008C8B1
:100B5000121F08C1002AFAD170477047002001E037
:100B600001C1121F002AFBD1704700002DE9FF4F81
:100B70008DB09B460F460446002606E025280BD084
:100B80005A460F999047641C761C20780028F5D1AE
:100B900011B03046BDE8F08F0025A84601229849E3
:100BA00000E0054314F8013F203B02FA03F008423D
:100BB000F7D120782E2817D114F8010F45F004053D
:100BC0002A280ED06FF02F022078A0F130010929D9
:100BD0000AD808EB880102EB410100EB0108641C14
:100BE000F2E757F8048B641C20786C280DD004DCE5
:100BF0004C2812D06A2811D104E074280DD07A282C
:100C00000CD10AE045F4001507E0617845F4801541
:100C1000814202D1641C05F58015641C2078692886
:100C200044D008DC0028B3D0582867D063280FD000
:100C3000642808D13AE0702865D0732812D075284E
:100C40005AD078285AD05A460F999047761CD5E04A
:100C500017F8040B8DF8000000208DF80100E9461C
:100C6000012003E057F8049B4FF0FF3069074FF075
:100C7000000501D40AE06D1C45450DDA8542FADB1A
:100C800019F805100029F6D106E06D1C8542FCDB41
:100C900019F805100029F8D12E4404E019F8010BC9
:100CA0005A460F9990476D1EF8D2A7E00A200021FE
:100CB000CDE90801C5F3025002280CD001CFC117BD
:100CC000021E71F100020CDA0023D0EB030063EB8B
:100CD00001012D2208E0FF1D27F00707F7E80201B8
:100CE000EEE72A0504D52B228DF8282001223CE0CE
:100CF000EA073AD02022F7E70A2000E0102000217E
:100D0000CDE9080107E01020002145F00405CDE9F8
:100D100008014FF00808C5F30250022810D001CF97
:100D200000214FF0000A2A0720D52278702A0DD022
:100D3000DDE908C38CF0100C5CEA030C0CD015E064
:100D4000FF1D27F00707F7E80201EAE740228DF8C8
:100D500028204FF0010A0CE050EA010306D03023AE
:100D60008DF828308DF82920022292462278582AC0
:100D700004D024A20DF120090B9209E026A2F9E784
:100D8000DDE90823FFF704FA0B9B9B5C09F8013DA2
:100D900050EA0102F4D1ADEB090020300890680759
:100DA00001D44FF001080899884503DD0898A8EBA5
:100DB000000000E000208046002506E00AA85A4610
:100DC000405D0F9990476D1C761C5545F6DB04E09D
:100DD00030205A460F999047761CB8F10001A8F1CF
:100DE0000108F5DC05E019F8010B5A460F99904708
:100DF000761C0899481E08900029F4DC641CC4E69F
:100E000009280100303132333435363738396162E0
:100E100063646566000000003031323334353637A4
:100E200038394142434445460000000010B56FF098
:100E30000400FFF7CFFC0A4800680A49B0FBF1F054
:100E4000094908700846007800EB4001C1EBC0106A
:100E50004FF6FF7101EAC0000449088010BD000090
:100E60001800002000127A0000000020020000207C
:100E70000146114A12884A434FF0E0235A6100228A
:100E80009A611A46126942F001021A6100BF4FF0DE
:100E9000E022106900F001021AB100F48032002A49
:100EA000F5D04FF0E022126922F001024FF0E0236A
:100EB0001A6100229A6170470200002070B5044652
:100EC0000D46E1B20548FFF72AFE00BF8021034826
:100ED000FFF757FD0028F9D0204670BD00380140CB
:100EE000FFF7A4FFFFF736FA4FF4165000F06AF848
:100EF00000F014F8FFF707FB00BF04A0FFF716FE91
:100F000003E04FF47A70FFF7B3FFFAE7696E697494
:100F1000616C697A65200D0A0000000000B587B099
:100F200001210420FFF756FB01214804FFF742FB93
:100F30000420ADF8080003208DF80A0018208DF871
:100F40000B0002A91D48FFF74EFA0820ADF8080073
:100F500004208DF80B0002A91848FFF744FA262058
:100F60008DF8040001208DF8070002208DF805009F
:100F700001208DF8060001A8FFF7CCFA4FF41650B7
:100F800003900020ADF81000ADF81200ADF8140089
:100F9000ADF818000C20ADF8160003A90848FFF7BB
:100FA0004DFD012240F225510548FFF721FD0121A9
:100FB0000348FFF7DAFC07B000BD0000000801405D
:100FC0000044004010B586B00446012144F20400FC
:100FD000FFF700FB4FF40070ADF8140003208DF80C
:100FE000160018208DF8170005A91D48FFF7FBF91A
:100FF0004FF48060ADF8140004208DF8170005A9A7
:101000001748FFF7F0F925208DF8000001208DF832
:10101000030000208DF8010001208DF802006846D1
:10102000FFF778FA01940020ADF80800ADF80A0047
:10103000ADF80C00ADF810000C20ADF80E00002249
:1010400040F225510748FFF7D3FC01A90548FFF7F7
:10105000F5FC01210348FFF788FC06B010BD000035
:1010600000080140003801408810000800000020FE
:10107000440000004C0B0008CC1000084400002085
:10108000140400005C0B00080000000000000000D9
:101090000000000000000000000000000000000050
:1010A00000A24A0400000000000000000102030446
:1010B00006070809000000000102030401020304FE
:0C10C000060708090204060800000000F2
:0400000508000131BD
:00000001FF
